{
  "_format": "hh-sol-artifact-1",
  "contractName": "FixedSwap",
  "sourceName": "contracts/FixedSwap.sol",
  "abi": [
    {
      "inputs": [
        {
          "internalType": "address",
          "name": "_tokenAddress",
          "type": "address"
        },
        {
          "internalType": "uint256",
          "name": "_tradeValue",
          "type": "uint256"
        },
        {
          "internalType": "uint256",
          "name": "_tokensForSale",
          "type": "uint256"
        },
        {
          "internalType": "uint256",
          "name": "_startDate",
          "type": "uint256"
        },
        {
          "internalType": "uint256",
          "name": "_endDate",
          "type": "uint256"
        },
        {
          "internalType": "uint256",
          "name": "_individualMinimumAmount",
          "type": "uint256"
        },
        {
          "internalType": "uint256",
          "name": "_individualMaximumAmount",
          "type": "uint256"
        },
        {
          "internalType": "bool",
          "name": "_isTokenSwapAtomic",
          "type": "bool"
        },
        {
          "internalType": "uint256",
          "name": "_minimumRaise",
          "type": "uint256"
        },
        {
          "internalType": "uint256",
          "name": "_feeAmount",
          "type": "uint256"
        },
        {
          "internalType": "bool",
          "name": "_hasWhitelisting",
          "type": "bool"
        }
      ],
      "stateMutability": "nonpayable",
      "type": "constructor"
    },
    {
      "anonymous": false,
      "inputs": [
        {
          "indexed": true,
          "internalType": "address[]",
          "name": "accounts",
          "type": "address[]"
        }
      ],
      "name": "AddedToWhitelist",
      "type": "event"
    },
    {
      "anonymous": false,
      "inputs": [
        {
          "indexed": true,
          "internalType": "address",
          "name": "previousOwner",
          "type": "address"
        },
        {
          "indexed": true,
          "internalType": "address",
          "name": "newOwner",
          "type": "address"
        }
      ],
      "name": "OwnershipTransferred",
      "type": "event"
    },
    {
      "anonymous": false,
      "inputs": [
        {
          "indexed": false,
          "internalType": "address",
          "name": "account",
          "type": "address"
        }
      ],
      "name": "Paused",
      "type": "event"
    },
    {
      "anonymous": false,
      "inputs": [
        {
          "indexed": false,
          "internalType": "uint256",
          "name": "amount",
          "type": "uint256"
        },
        {
          "indexed": true,
          "internalType": "address",
          "name": "purchaser",
          "type": "address"
        },
        {
          "indexed": false,
          "internalType": "uint256",
          "name": "timestamp",
          "type": "uint256"
        }
      ],
      "name": "PurchaseEvent",
      "type": "event"
    },
    {
      "anonymous": false,
      "inputs": [
        {
          "indexed": true,
          "internalType": "address",
          "name": "account",
          "type": "address"
        }
      ],
      "name": "RemovedFromWhitelist",
      "type": "event"
    },
    {
      "anonymous": false,
      "inputs": [
        {
          "indexed": false,
          "internalType": "address",
          "name": "account",
          "type": "address"
        }
      ],
      "name": "Unpaused",
      "type": "event"
    },
    {
      "inputs": [],
      "name": "FEE_ADDRESS",
      "outputs": [
        {
          "internalType": "address",
          "name": "",
          "type": "address"
        }
      ],
      "stateMutability": "view",
      "type": "function"
    },
    {
      "inputs": [
        {
          "internalType": "address[]",
          "name": "_addresses",
          "type": "address[]"
        }
      ],
      "name": "add",
      "outputs": [],
      "stateMutability": "nonpayable",
      "type": "function"
    },
    {
      "inputs": [],
      "name": "availableTokens",
      "outputs": [
        {
          "internalType": "uint256",
          "name": "",
          "type": "uint256"
        }
      ],
      "stateMutability": "view",
      "type": "function"
    },
    {
      "inputs": [
        {
          "internalType": "uint256",
          "name": "",
          "type": "uint256"
        }
      ],
      "name": "buyers",
      "outputs": [
        {
          "internalType": "address",
          "name": "",
          "type": "address"
        }
      ],
      "stateMutability": "view",
      "type": "function"
    },
    {
      "inputs": [
        {
          "internalType": "uint256",
          "name": "_amount",
          "type": "uint256"
        }
      ],
      "name": "cost",
      "outputs": [
        {
          "internalType": "uint256",
          "name": "",
          "type": "uint256"
        }
      ],
      "stateMutability": "view",
      "type": "function"
    },
    {
      "inputs": [],
      "name": "decimals",
      "outputs": [
        {
          "internalType": "uint256",
          "name": "",
          "type": "uint256"
        }
      ],
      "stateMutability": "view",
      "type": "function"
    },
    {
      "inputs": [],
      "name": "endDate",
      "outputs": [
        {
          "internalType": "uint256",
          "name": "",
          "type": "uint256"
        }
      ],
      "stateMutability": "view",
      "type": "function"
    },
    {
      "inputs": [],
      "name": "erc20",
      "outputs": [
        {
          "internalType": "contract ERC20",
          "name": "",
          "type": "address"
        }
      ],
      "stateMutability": "view",
      "type": "function"
    },
    {
      "inputs": [],
      "name": "feePercentage",
      "outputs": [
        {
          "internalType": "uint256",
          "name": "",
          "type": "uint256"
        }
      ],
      "stateMutability": "view",
      "type": "function"
    },
    {
      "inputs": [
        {
          "internalType": "uint256",
          "name": "_amount",
          "type": "uint256"
        }
      ],
      "name": "fund",
      "outputs": [],
      "stateMutability": "nonpayable",
      "type": "function"
    },
    {
      "inputs": [],
      "name": "getBuyers",
      "outputs": [
        {
          "internalType": "address[]",
          "name": "",
          "type": "address[]"
        }
      ],
      "stateMutability": "view",
      "type": "function"
    },
    {
      "inputs": [
        {
          "internalType": "address",
          "name": "_address",
          "type": "address"
        }
      ],
      "name": "getMyPurchases",
      "outputs": [
        {
          "internalType": "uint256[]",
          "name": "",
          "type": "uint256[]"
        }
      ],
      "stateMutability": "view",
      "type": "function"
    },
    {
      "inputs": [
        {
          "internalType": "uint256",
          "name": "_purchase_id",
          "type": "uint256"
        }
      ],
      "name": "getPurchase",
      "outputs": [
        {
          "internalType": "uint256",
          "name": "",
          "type": "uint256"
        },
        {
          "internalType": "address",
          "name": "",
          "type": "address"
        },
        {
          "internalType": "uint256",
          "name": "",
          "type": "uint256"
        },
        {
          "internalType": "uint256",
          "name": "",
          "type": "uint256"
        },
        {
          "internalType": "bool",
          "name": "",
          "type": "bool"
        },
        {
          "internalType": "bool",
          "name": "",
          "type": "bool"
        }
      ],
      "stateMutability": "view",
      "type": "function"
    },
    {
      "inputs": [],
      "name": "getPurchaseIds",
      "outputs": [
        {
          "internalType": "uint256[]",
          "name": "",
          "type": "uint256[]"
        }
      ],
      "stateMutability": "view",
      "type": "function"
    },
    {
      "inputs": [],
      "name": "getWhitelistedAddresses",
      "outputs": [
        {
          "internalType": "address[]",
          "name": "",
          "type": "address[]"
        }
      ],
      "stateMutability": "view",
      "type": "function"
    },
    {
      "inputs": [],
      "name": "hasFinalized",
      "outputs": [
        {
          "internalType": "bool",
          "name": "",
          "type": "bool"
        }
      ],
      "stateMutability": "view",
      "type": "function"
    },
    {
      "inputs": [],
      "name": "hasMinimumAmount",
      "outputs": [
        {
          "internalType": "bool",
          "name": "",
          "type": "bool"
        }
      ],
      "stateMutability": "view",
      "type": "function"
    },
    {
      "inputs": [],
      "name": "hasMinimumRaise",
      "outputs": [
        {
          "internalType": "bool",
          "name": "",
          "type": "bool"
        }
      ],
      "stateMutability": "view",
      "type": "function"
    },
    {
      "inputs": [],
      "name": "hasStarted",
      "outputs": [
        {
          "internalType": "bool",
          "name": "",
          "type": "bool"
        }
      ],
      "stateMutability": "view",
      "type": "function"
    },
    {
      "inputs": [],
      "name": "hasWhitelisting",
      "outputs": [
        {
          "internalType": "bool",
          "name": "",
          "type": "bool"
        }
      ],
      "stateMutability": "view",
      "type": "function"
    },
    {
      "inputs": [],
      "name": "individualMaximumAmount",
      "outputs": [
        {
          "internalType": "uint256",
          "name": "",
          "type": "uint256"
        }
      ],
      "stateMutability": "view",
      "type": "function"
    },
    {
      "inputs": [],
      "name": "individualMinimumAmount",
      "outputs": [
        {
          "internalType": "uint256",
          "name": "",
          "type": "uint256"
        }
      ],
      "stateMutability": "view",
      "type": "function"
    },
    {
      "inputs": [
        {
          "internalType": "uint256",
          "name": "purchase_id",
          "type": "uint256"
        }
      ],
      "name": "isBuyer",
      "outputs": [
        {
          "internalType": "bool",
          "name": "",
          "type": "bool"
        }
      ],
      "stateMutability": "view",
      "type": "function"
    },
    {
      "inputs": [],
      "name": "isOpen",
      "outputs": [
        {
          "internalType": "bool",
          "name": "",
          "type": "bool"
        }
      ],
      "stateMutability": "view",
      "type": "function"
    },
    {
      "inputs": [],
      "name": "isPreStart",
      "outputs": [
        {
          "internalType": "bool",
          "name": "",
          "type": "bool"
        }
      ],
      "stateMutability": "view",
      "type": "function"
    },
    {
      "inputs": [],
      "name": "isSaleFunded",
      "outputs": [
        {
          "internalType": "bool",
          "name": "",
          "type": "bool"
        }
      ],
      "stateMutability": "view",
      "type": "function"
    },
    {
      "inputs": [],
      "name": "isTokenSwapAtomic",
      "outputs": [
        {
          "internalType": "bool",
          "name": "",
          "type": "bool"
        }
      ],
      "stateMutability": "view",
      "type": "function"
    },
    {
      "inputs": [
        {
          "internalType": "address",
          "name": "_address",
          "type": "address"
        }
      ],
      "name": "isWhitelisted",
      "outputs": [
        {
          "internalType": "bool",
          "name": "",
          "type": "bool"
        }
      ],
      "stateMutability": "view",
      "type": "function"
    },
    {
      "inputs": [],
      "name": "minimumRaise",
      "outputs": [
        {
          "internalType": "uint256",
          "name": "",
          "type": "uint256"
        }
      ],
      "stateMutability": "view",
      "type": "function"
    },
    {
      "inputs": [],
      "name": "minimumRaiseAchieved",
      "outputs": [
        {
          "internalType": "bool",
          "name": "",
          "type": "bool"
        }
      ],
      "stateMutability": "view",
      "type": "function"
    },
    {
      "inputs": [],
      "name": "minimumRaiseNotAchieved",
      "outputs": [
        {
          "internalType": "bool",
          "name": "",
          "type": "bool"
        }
      ],
      "stateMutability": "view",
      "type": "function"
    },
    {
      "inputs": [
        {
          "internalType": "address",
          "name": "",
          "type": "address"
        },
        {
          "internalType": "uint256",
          "name": "",
          "type": "uint256"
        }
      ],
      "name": "myPurchases",
      "outputs": [
        {
          "internalType": "uint256",
          "name": "",
          "type": "uint256"
        }
      ],
      "stateMutability": "view",
      "type": "function"
    },
    {
      "inputs": [],
      "name": "owner",
      "outputs": [
        {
          "internalType": "address",
          "name": "",
          "type": "address"
        }
      ],
      "stateMutability": "view",
      "type": "function"
    },
    {
      "inputs": [],
      "name": "paused",
      "outputs": [
        {
          "internalType": "bool",
          "name": "",
          "type": "bool"
        }
      ],
      "stateMutability": "view",
      "type": "function"
    },
    {
      "inputs": [
        {
          "internalType": "uint256",
          "name": "",
          "type": "uint256"
        }
      ],
      "name": "purchaseIds",
      "outputs": [
        {
          "internalType": "uint256",
          "name": "",
          "type": "uint256"
        }
      ],
      "stateMutability": "view",
      "type": "function"
    },
    {
      "inputs": [
        {
          "internalType": "uint256",
          "name": "",
          "type": "uint256"
        }
      ],
      "name": "purchases",
      "outputs": [
        {
          "internalType": "uint256",
          "name": "amount",
          "type": "uint256"
        },
        {
          "internalType": "address",
          "name": "purchaser",
          "type": "address"
        },
        {
          "internalType": "uint256",
          "name": "ethAmount",
          "type": "uint256"
        },
        {
          "internalType": "uint256",
          "name": "timestamp",
          "type": "uint256"
        },
        {
          "internalType": "bool",
          "name": "wasFinalized",
          "type": "bool"
        },
        {
          "internalType": "bool",
          "name": "reverted",
          "type": "bool"
        }
      ],
      "stateMutability": "view",
      "type": "function"
    },
    {
      "inputs": [
        {
          "internalType": "uint256",
          "name": "purchase_id",
          "type": "uint256"
        }
      ],
      "name": "redeemGivenMinimumGoalNotAchieved",
      "outputs": [],
      "stateMutability": "nonpayable",
      "type": "function"
    },
    {
      "inputs": [
        {
          "internalType": "uint256",
          "name": "purchase_id",
          "type": "uint256"
        }
      ],
      "name": "redeemTokens",
      "outputs": [],
      "stateMutability": "nonpayable",
      "type": "function"
    },
    {
      "inputs": [
        {
          "internalType": "address",
          "name": "_address",
          "type": "address"
        },
        {
          "internalType": "uint256",
          "name": "_index",
          "type": "uint256"
        }
      ],
      "name": "remove",
      "outputs": [],
      "stateMutability": "nonpayable",
      "type": "function"
    },
    {
      "inputs": [
        {
          "internalType": "address",
          "name": "_tokenAddress",
          "type": "address"
        },
        {
          "internalType": "address",
          "name": "_to",
          "type": "address"
        }
      ],
      "name": "removeOtherERC20Tokens",
      "outputs": [],
      "stateMutability": "nonpayable",
      "type": "function"
    },
    {
      "inputs": [],
      "name": "renounceOwnership",
      "outputs": [],
      "stateMutability": "nonpayable",
      "type": "function"
    },
    {
      "inputs": [],
      "name": "safePull",
      "outputs": [],
      "stateMutability": "payable",
      "type": "function"
    },
    {
      "inputs": [],
      "name": "startDate",
      "outputs": [
        {
          "internalType": "uint256",
          "name": "",
          "type": "uint256"
        }
      ],
      "stateMutability": "view",
      "type": "function"
    },
    {
      "inputs": [
        {
          "internalType": "uint256",
          "name": "_amount",
          "type": "uint256"
        }
      ],
      "name": "swap",
      "outputs": [],
      "stateMutability": "payable",
      "type": "function"
    },
    {
      "inputs": [],
      "name": "tokensAllocated",
      "outputs": [
        {
          "internalType": "uint256",
          "name": "",
          "type": "uint256"
        }
      ],
      "stateMutability": "view",
      "type": "function"
    },
    {
      "inputs": [],
      "name": "tokensForSale",
      "outputs": [
        {
          "internalType": "uint256",
          "name": "",
          "type": "uint256"
        }
      ],
      "stateMutability": "view",
      "type": "function"
    },
    {
      "inputs": [],
      "name": "tokensLeft",
      "outputs": [
        {
          "internalType": "uint256",
          "name": "",
          "type": "uint256"
        }
      ],
      "stateMutability": "view",
      "type": "function"
    },
    {
      "inputs": [],
      "name": "totalRaiseCost",
      "outputs": [
        {
          "internalType": "uint256",
          "name": "",
          "type": "uint256"
        }
      ],
      "stateMutability": "view",
      "type": "function"
    },
    {
      "inputs": [],
      "name": "tradeValue",
      "outputs": [
        {
          "internalType": "uint256",
          "name": "",
          "type": "uint256"
        }
      ],
      "stateMutability": "view",
      "type": "function"
    },
    {
      "inputs": [
        {
          "internalType": "address",
          "name": "newOwner",
          "type": "address"
        }
      ],
      "name": "transferOwnership",
      "outputs": [],
      "stateMutability": "nonpayable",
      "type": "function"
    },
    {
      "inputs": [],
      "name": "unsoldTokensReedemed",
      "outputs": [
        {
          "internalType": "bool",
          "name": "",
          "type": "bool"
        }
      ],
      "stateMutability": "view",
      "type": "function"
    },
    {
      "inputs": [
        {
          "internalType": "address",
          "name": "",
          "type": "address"
        }
      ],
      "name": "whitelist",
      "outputs": [
        {
          "internalType": "bool",
          "name": "",
          "type": "bool"
        }
      ],
      "stateMutability": "view",
      "type": "function"
    },
    {
      "inputs": [
        {
          "internalType": "uint256",
          "name": "",
          "type": "uint256"
        }
      ],
      "name": "whitelistedAddresses",
      "outputs": [
        {
          "internalType": "address",
          "name": "",
          "type": "address"
        }
      ],
      "stateMutability": "view",
      "type": "function"
    },
    {
      "inputs": [],
      "name": "withdrawFunds",
      "outputs": [],
      "stateMutability": "nonpayable",
      "type": "function"
    },
    {
      "inputs": [],
      "name": "withdrawUnsoldTokens",
      "outputs": [],
      "stateMutability": "nonpayable",
      "type": "function"
    }
  ],
  "bytecode": "0x60806040526000600360006101000a81548160ff02191690831515021790555060006004556000600960146101000a81548160ff0219169083151502179055506000600a556000600b60006101000a81548160ff0219169083151502179055506000600f556000601055600060115560006012556000601355736de563767862133854e4aadb29684fa7ee5bae74601460016101000a81548173ffffffffffffffffffffffffffffffffffffffff021916908373ffffffffffffffffffffffffffffffffffffffff1602179055506001601555348015620000df57600080fd5b5060405162005b7338038062005b73833981810160405281019062000105919062000734565b8060008060006101000a81548160ff0219169083151502179055506000620001326200060460201b60201c565b905080600060016101000a81548173ffffffffffffffffffffffffffffffffffffffff021916908373ffffffffffffffffffffffffffffffffffffffff1602179055508073ffffffffffffffffffffffffffffffffffffffff16600073ffffffffffffffffffffffffffffffffffffffff167f8be0079c531659141344cd1fd0a4f28419497f9722a3daafe3b4186f6b6457e060405160405180910390a35080600360006101000a81548160ff0219169083151502179055505086421062000231576040517f08c379a0000000000000000000000000000000000000000000000000000000008152600401620002289062000bfe565b60405180910390fd5b87421062000276576040517f08c379a00000000000000000000000000000000000000000000000000000000081526004016200026d9062000c42565b60405180910390fd5b868810620002bb576040517f08c379a0000000000000000000000000000000000000000000000000000000008152600401620002b29062000c20565b60405180910390fd5b6000891162000301576040517f08c379a0000000000000000000000000000000000000000000000000000000008152600401620002f89062000bdc565b60405180910390fd5b85891162000346576040517f08c379a00000000000000000000000000000000000000000000000000000000081526004016200033d9062000cca565b60405180910390fd5b858510156200038c576040517f08c379a0000000000000000000000000000000000000000000000000000000008152600401620003839062000c64565b60405180910390fd5b88831115620003d2576040517f08c379a0000000000000000000000000000000000000000000000000000000008152600401620003c99062000ca8565b60405180910390fd5b6015548210156200041a576040517f08c379a0000000000000000000000000000000000000000000000000000000008152600401620004119062000cec565b60405180910390fd5b606382111562000461576040517f08c379a0000000000000000000000000000000000000000000000000000000008152600401620004589062000c86565b60405180910390fd5b620004ac6040518060400160405280600381526020017f76636c00000000000000000000000000000000000000000000000000000000008152506200060c60201b620034e11760201c565b87600d8190555086600e819055508860138190555089600c8190555085600f819055508460108190555083601460006101000a81548160ff02191690831515021790555083620004fe57826011819055505b8a600960006101000a81548173ffffffffffffffffffffffffffffffffffffffff021916908373ffffffffffffffffffffffffffffffffffffffff160217905550600960009054906101000a900473ffffffffffffffffffffffffffffffffffffffff1673ffffffffffffffffffffffffffffffffffffffff1663313ce5676040518163ffffffff1660e01b815260040160206040518083038186803b158015620005a857600080fd5b505afa158015620005bd573d6000803e3d6000fd5b505050506040513d601f19601f82011682018060405250810190620005e391906200083b565b60ff16600a8190555081601581905550505050505050505050505062000e30565b600033905090565b620006ac8160405160240162000623919062000bb8565b6040516020818303038152906040527f41304fac000000000000000000000000000000000000000000000000000000007bffffffffffffffffffffffffffffffffffffffffffffffffffffffff19166020820180517bffffffffffffffffffffffffffffffffffffffffffffffffffffffff8381831617835250505050620006af60201b60201c565b50565b60008151905060006a636f6e736f6c652e6c6f679050602083016000808483855afa5050505050565b600081519050620006e98162000dc8565b92915050565b600081519050620007008162000de2565b92915050565b600081519050620007178162000dfc565b92915050565b6000815190506200072e8162000e16565b92915050565b60008060008060008060008060008060006101608c8e0312156200075757600080fd5b6000620007678e828f01620006d8565b9b505060206200077a8e828f0162000706565b9a505060406200078d8e828f0162000706565b9950506060620007a08e828f0162000706565b9850506080620007b38e828f0162000706565b97505060a0620007c68e828f0162000706565b96505060c0620007d98e828f0162000706565b95505060e0620007ec8e828f01620006ef565b945050610100620008008e828f0162000706565b935050610120620008148e828f0162000706565b925050610140620008288e828f01620006ef565b9150509295989b509295989b9093969950565b6000602082840312156200084e57600080fd5b60006200085e848285016200071d565b91505092915050565b6000620008748262000d0e565b62000880818562000d19565b93506200089281856020860162000d81565b6200089d8162000db7565b840191505092915050565b6000620008b7601d8362000d19565b91507f546f6b656e7320666f722053616c652073686f756c64206265203e20300000006000830152602082019050919050565b6000620008f9602c8362000d19565b91507f456e6420446174652073686f756c642062652066757274686572207468616e2060008301527f63757272656e74206461746500000000000000000000000000000000000000006020830152604082019050919050565b600062000961601f8362000d19565b91507f456e64204461746520686967686572207468616e2053746172742044617465006000830152602082019050919050565b6000620009a3602e8362000d19565b91507f537461727420446174652073686f756c6420626520667572746865722074686160008301527f6e2063757272656e7420646174650000000000000000000000000000000000006020830152604082019050919050565b600062000a0b603f8362000d19565b91507f496e646976696475616c204d6178696d696d20414d6f756e742073686f756c6460008301527f206265203e20496e646976696475616c204d696e696d756d20416d6f756e74006020830152604082019050919050565b600062000a73601e8362000d19565b91507f4665652050657263656e746167652068617320746f206265203c2031303000006000830152602082019050919050565b600062000ab560298362000d19565b91507f4d696e696d756d2052616973652073686f756c64206265203c20546f6b656e7360008301527f20466f722053616c6500000000000000000000000000000000000000000000006020830152604082019050919050565b600062000b1d60358362000d19565b91507f546f6b656e7320666f722053616c652073686f756c64206265203e20496e646960008301527f76696475616c204d696e696d756d20416d6f756e7400000000000000000000006020830152604082019050919050565b600062000b85601d8362000d19565b91507f4665652050657263656e746167652068617320746f206265203e3d20310000006000830152602082019050919050565b6000602082019050818103600083015262000bd4818462000867565b905092915050565b6000602082019050818103600083015262000bf781620008a8565b9050919050565b6000602082019050818103600083015262000c1981620008ea565b9050919050565b6000602082019050818103600083015262000c3b8162000952565b9050919050565b6000602082019050818103600083015262000c5d8162000994565b9050919050565b6000602082019050818103600083015262000c7f81620009fc565b9050919050565b6000602082019050818103600083015262000ca18162000a64565b9050919050565b6000602082019050818103600083015262000cc38162000aa6565b9050919050565b6000602082019050818103600083015262000ce58162000b0e565b9050919050565b6000602082019050818103600083015262000d078162000b76565b9050919050565b600081519050919050565b600082825260208201905092915050565b600062000d378262000d4a565b9050919050565b60008115159050919050565b600073ffffffffffffffffffffffffffffffffffffffff82169050919050565b6000819050919050565b600060ff82169050919050565b60005b8381101562000da157808201518184015260208101905062000d84565b8381111562000db1576000848401525b50505050565b6000601f19601f8301169050919050565b62000dd38162000d2a565b811462000ddf57600080fd5b50565b62000ded8162000d3e565b811462000df957600080fd5b50565b62000e078162000d6a565b811462000e1357600080fd5b50565b62000e218162000d74565b811462000e2d57600080fd5b50565b614d338062000e406000396000f3fe6080604052600436106103505760003560e01c8063785e9e86116101c6578063ba4e5c49116100f7578063e4101de511610095578063f2aa82181161006f578063f2aa821814610c1a578063f2fde38b14610c57578063f64bfaba14610c80578063fecf415a14610cab57610350565b8063e4101de514610b99578063eb1edd6114610bc4578063efbb34d514610bef57610350565b8063c4c1c94f116100d1578063c4c1c94f14610af3578063c8bdbfb614610b1c578063ca1d209d14610b33578063d65fb16014610b5c57610350565b8063ba4e5c4914610a4e578063c24a0f8b14610a8b578063c3ca324f14610ab657610350565b80639b19251a11610164578063abe7f1ab1161013e578063abe7f1ab146109a4578063b31f8f93146109cd578063b367940e146109f8578063b7fd706d14610a2357610350565b80639b19251a14610913578063a001ecdd14610950578063a6e158f81461097b57610350565b80638e75b131116101a05780638e75b131146108665780639097548d14610891578063917c854d146108ce57806394b918de146108f757610350565b8063785e9e86146107ce5780638392fe31146107f95780638da5cb5b1461083b57610350565b80633af32abf116102a057806369bb4dc21161023e57806370a898bc1161021857806370a898bc14610736578063715018a61461076157806374fa05fb14610778578063755e3e28146107a357610350565b806369bb4dc2146106b55780636a93df11146106e05780636d0280271461070b57610350565b806347535d7b1161027a57806347535d7b146105f75780635ac699bb146106225780635c975abb1461065f5780636295a2f41461068a57610350565b80633af32abf146105645780634089aa9a146105a157806344691f7e146105cc57610350565b806321d3002a1161030d5780632e154107116102e75780632e154107146104a15780632ebb5c1e146104cc578063313ce567146104f75780633742a9f71461052257610350565b806321d3002a1461045557806324600fc3146104805780632daa8c841461049757610350565b806307662345146103555780630b97bc861461038057806312aef8c3146103ab57806315b57866146103d6578063161a7b2a146104015780631de18af71461042c575b600080fd5b34801561036157600080fd5b5061036a610ce8565b604051610377919061436c565b60405180910390f35b34801561038c57600080fd5b50610395610cfb565b6040516103a29190614704565b60405180910390f35b3480156103b757600080fd5b506103c0610d01565b6040516103cd9190614704565b60405180910390f35b3480156103e257600080fd5b506103eb610d07565b6040516103f8919061436c565b60405180910390f35b34801561040d57600080fd5b50610416610d14565b604051610423919061436c565b60405180910390f35b34801561043857600080fd5b50610453600480360381019061044e91906137f8565b610d27565b005b34801561046157600080fd5b5061046a610fd9565b604051610477919061436c565b60405180910390f35b34801561048c57600080fd5b50610495610fec565b005b61049f611217565b005b3480156104ad57600080fd5b506104b661147d565b6040516104c39190614704565b60405180910390f35b3480156104d857600080fd5b506104e1611483565b6040516104ee919061436c565b60405180910390f35b34801561050357600080fd5b5061050c61148f565b6040516105199190614704565b60405180910390f35b34801561052e57600080fd5b50610549600480360381019061054491906137f8565b611495565b60405161055b9695949392919061471f565b60405180910390f35b34801561057057600080fd5b5061058b600480360381019061058691906136ed565b61159e565b604051610598919061436c565b60405180910390f35b3480156105ad57600080fd5b506105b66115f4565b6040516105c3919061436c565b60405180910390f35b3480156105d857600080fd5b506105e1611600565b6040516105ee919061436c565b60405180910390f35b34801561060357600080fd5b5061060c61160d565b604051610619919061436c565b60405180910390f35b34801561062e57600080fd5b5061064960048036038101906106449190613752565b61162d565b6040516106569190614704565b60405180910390f35b34801561066b57600080fd5b5061067461165e565b604051610681919061436c565b60405180910390f35b34801561069657600080fd5b5061069f611674565b6040516106ac9190614704565b60405180910390f35b3480156106c157600080fd5b506106ca61167a565b6040516106d79190614704565b60405180910390f35b3480156106ec57600080fd5b506106f561172c565b604051610702919061434a565b60405180910390f35b34801561071757600080fd5b50610720611784565b60405161072d9190614328565b60405180910390f35b34801561074257600080fd5b5061074b611812565b604051610758919061436c565b60405180910390f35b34801561076d57600080fd5b5061077661181f565b005b34801561078457600080fd5b5061078d61195b565b60405161079a919061436c565b60405180910390f35b3480156107af57600080fd5b506107b86119ba565b6040516107c59190614704565b60405180910390f35b3480156107da57600080fd5b506107e36119c0565b6040516107f09190614387565b60405180910390f35b34801561080557600080fd5b50610820600480360381019061081b91906137f8565b6119e6565b6040516108329695949392919061471f565b60405180910390f35b34801561084757600080fd5b50610850611a5c565b60405161085d91906142ad565b60405180910390f35b34801561087257600080fd5b5061087b611a85565b6040516108889190614704565b60405180910390f35b34801561089d57600080fd5b506108b860048036038101906108b391906137f8565b611a8b565b6040516108c59190614704565b60405180910390f35b3480156108da57600080fd5b506108f560048036038101906108f09190613716565b611ac9565b005b610911600480360381019061090c91906137f8565b611d7b565b005b34801561091f57600080fd5b5061093a600480360381019061093591906136ed565b612439565b604051610947919061436c565b60405180910390f35b34801561095c57600080fd5b50610965612459565b6040516109729190614704565b60405180910390f35b34801561098757600080fd5b506109a2600480360381019061099d91906137f8565b61245f565b005b3480156109b057600080fd5b506109cb60048036038101906109c69190613752565b612743565b005b3480156109d957600080fd5b506109e2612961565b6040516109ef9190614704565b60405180910390f35b348015610a0457600080fd5b50610a0d612978565b604051610a1a919061436c565b60405180910390f35b348015610a2f57600080fd5b50610a386129e6565b604051610a45919061436c565b60405180910390f35b348015610a5a57600080fd5b50610a756004803603810190610a7091906137f8565b6129f9565b604051610a8291906142ad565b60405180910390f35b348015610a9757600080fd5b50610aa0612a38565b604051610aad9190614704565b60405180910390f35b348015610ac257600080fd5b50610add6004803603810190610ad891906136ed565b612a3e565b604051610aea919061434a565b60405180910390f35b348015610aff57600080fd5b50610b1a6004803603810190610b15919061378e565b612ad5565b005b348015610b2857600080fd5b50610b31612d8e565b005b348015610b3f57600080fd5b50610b5a6004803603810190610b5591906137f8565b612fd3565b005b348015610b6857600080fd5b50610b836004803603810190610b7e91906137f8565b613198565b604051610b909190614704565b60405180910390f35b348015610ba557600080fd5b50610bae6131bc565b604051610bbb9190614704565b60405180910390f35b348015610bd057600080fd5b50610bd96131c2565b604051610be691906142ad565b60405180910390f35b348015610bfb57600080fd5b50610c046131e8565b604051610c119190614704565b60405180910390f35b348015610c2657600080fd5b50610c416004803603810190610c3c91906137f8565b6131fa565b604051610c4e91906142ad565b60405180910390f35b348015610c6357600080fd5b50610c7e6004803603810190610c7991906136ed565b613239565b005b348015610c8c57600080fd5b50610c956133e5565b604051610ca29190614328565b60405180910390f35b348015610cb757600080fd5b50610cd26004803603810190610ccd91906137f8565b613473565b604051610cdf919061436c565b60405180910390f35b600360009054906101000a900460ff1681565b600d5481565b60135481565b6000806011541415905090565b600960149054906101000a900460ff1681565b610d2f6115f4565b610d6e576040517f08c379a0000000000000000000000000000000000000000000000000000000008152600401610d6590614464565b60405180910390fd5b601460009054906101000a900460ff1615610dbe576040517f08c379a0000000000000000000000000000000000000000000000000000000008152600401610db5906144a4565b60405180910390fd5b610dc6610d07565b610e05576040517f08c379a0000000000000000000000000000000000000000000000000000000008152600401610dfc906145a4565b60405180910390fd5b610e0d61195b565b610e4c576040517f08c379a0000000000000000000000000000000000000000000000000000000008152600401610e43906146e4565b60405180910390fd5b6000600560008381526020019081526020016000206000015414158015610e9457506005600082815260200190815260200160002060040160009054906101000a900460ff16155b610ed3576040517f08c379a0000000000000000000000000000000000000000000000000000000008152600401610eca90614404565b60405180910390fd5b610edc81613473565b610f1b576040517f08c379a0000000000000000000000000000000000000000000000000000000008152600401610f12906144e4565b60405180910390fd5b60016005600083815260200190815260200160002060040160006101000a81548160ff02191690831515021790555060016005600083815260200190815260200160002060040160016101000a81548160ff0219169083151502179055503373ffffffffffffffffffffffffffffffffffffffff166108fc60056000848152602001908152602001600020600201549081150290604051600060405180830381858888f19350505050158015610fd5573d6000803e3d6000fd5b5050565b601460009054906101000a900460ff1681565b610ff461357a565b73ffffffffffffffffffffffffffffffffffffffff16611012611a5c565b73ffffffffffffffffffffffffffffffffffffffff1614611068576040517f08c379a000000000000000000000000000000000000000000000000000000000815260040161105f906145e4565b60405180910390fd5b61107061165e565b156110b0576040517f08c379a00000000000000000000000000000000000000000000000000000000081526004016110a790614564565b60405180910390fd5b6110b86115f4565b6110f7576040517f08c379a00000000000000000000000000000000000000000000000000000000081526004016110ee90614464565b60405180910390fd5b6110ff612978565b61113e576040517f08c379a0000000000000000000000000000000000000000000000000000000008152600401611135906146e4565b60405180910390fd5b601460019054906101000a900473ffffffffffffffffffffffffffffffffffffffff1673ffffffffffffffffffffffffffffffffffffffff166108fc6111a260646111946015544761358290919063ffffffff16565b61359890919063ffffffff16565b9081150290604051600060405180830381858888f193505050501580156111cd573d6000803e3d6000fd5b503373ffffffffffffffffffffffffffffffffffffffff166108fc479081150290604051600060405180830381858888f19350505050158015611214573d6000803e3d6000fd5b50565b61121f61357a565b73ffffffffffffffffffffffffffffffffffffffff1661123d611a5c565b73ffffffffffffffffffffffffffffffffffffffff1614611293576040517f08c379a000000000000000000000000000000000000000000000000000000000815260040161128a906145e4565b60405180910390fd5b61129b61165e565b6112da576040517f08c379a00000000000000000000000000000000000000000000000000000000081526004016112d1906143c4565b60405180910390fd5b3373ffffffffffffffffffffffffffffffffffffffff166108fc479081150290604051600060405180830381858888f19350505050158015611320573d6000803e3d6000fd5b50600960009054906101000a900473ffffffffffffffffffffffffffffffffffffffff1673ffffffffffffffffffffffffffffffffffffffff1663a9059cbb33600960009054906101000a900473ffffffffffffffffffffffffffffffffffffffff1673ffffffffffffffffffffffffffffffffffffffff166370a08231306040518263ffffffff1660e01b81526004016113bb91906142ad565b60206040518083038186803b1580156113d357600080fd5b505afa1580156113e7573d6000803e3d6000fd5b505050506040513d601f19601f8201168201806040525081019061140b9190613821565b6040518363ffffffff1660e01b81526004016114289291906142ff565b602060405180830381600087803b15801561144257600080fd5b505af1158015611456573d6000803e3d6000fd5b505050506040513d601f19601f8201168201806040525081019061147a91906137cf565b50565b600f5481565b6000600d544210905090565b600a5481565b6000806000806000806000600560008981526020019081526020016000206040518060c0016040529081600082015481526020016001820160009054906101000a900473ffffffffffffffffffffffffffffffffffffffff1673ffffffffffffffffffffffffffffffffffffffff1673ffffffffffffffffffffffffffffffffffffffff16815260200160028201548152602001600382015481526020016004820160009054906101000a900460ff161515151581526020016004820160019054906101000a900460ff1615151515815250509050806000015181602001518260400151836060015184608001518560a001519650965096509650965096505091939550919395565b6000600160008373ffffffffffffffffffffffffffffffffffffffff1673ffffffffffffffffffffffffffffffffffffffff16815260200190815260200160002060009054906101000a900460ff169050919050565b6000600e544211905090565b6000600d54421015905090565b6000611617611600565b801561162857506116266115f4565b155b905090565b6008602052816000526040600020818154811061164957600080fd5b90600052602060002001600091509150505481565b60008060009054906101000a900460ff16905090565b600c5481565b6000600960009054906101000a900473ffffffffffffffffffffffffffffffffffffffff1673ffffffffffffffffffffffffffffffffffffffff166370a08231306040518263ffffffff1660e01b81526004016116d791906142ad565b60206040518083038186803b1580156116ef57600080fd5b505afa158015611703573d6000803e3d6000fd5b505050506040513d601f19601f820116820180604052508101906117279190613821565b905090565b6060600780548060200260200160405190810160405280929190818152602001828054801561177a57602002820191906000526020600020905b815481526020019060010190808311611766575b5050505050905090565b6060600280548060200260200160405190810160405280929190818152602001828054801561180857602002820191906000526020600020905b8160009054906101000a900473ffffffffffffffffffffffffffffffffffffffff1673ffffffffffffffffffffffffffffffffffffffff16815260200190600101908083116117be575b5050505050905090565b600080600f541415905090565b61182761357a565b73ffffffffffffffffffffffffffffffffffffffff16611845611a5c565b73ffffffffffffffffffffffffffffffffffffffff161461189b576040517f08c379a0000000000000000000000000000000000000000000000000000000008152600401611892906145e4565b60405180910390fd5b600073ffffffffffffffffffffffffffffffffffffffff16600060019054906101000a900473ffffffffffffffffffffffffffffffffffffffff1673ffffffffffffffffffffffffffffffffffffffff167f8be0079c531659141344cd1fd0a4f28419497f9722a3daafe3b4186f6b6457e060405160405180910390a360008060016101000a81548173ffffffffffffffffffffffffffffffffffffffff021916908373ffffffffffffffffffffffffffffffffffffffff160217905550565b6000611968601154611a8b565b611973601254611a8b565b106119b3576040517f08c379a00000000000000000000000000000000000000000000000000000000081526004016119aa90614524565b60405180910390fd5b6001905090565b60125481565b600960009054906101000a900473ffffffffffffffffffffffffffffffffffffffff1681565b60056020528060005260406000206000915090508060000154908060010160009054906101000a900473ffffffffffffffffffffffffffffffffffffffff16908060020154908060030154908060040160009054906101000a900460ff16908060040160019054906101000a900460ff16905086565b60008060019054906101000a900473ffffffffffffffffffffffffffffffffffffffff16905090565b60115481565b6000611ac2600a54600a611a9f9190614979565b611ab4600c548561358290919063ffffffff16565b61359890919063ffffffff16565b9050919050565b611ad161357a565b73ffffffffffffffffffffffffffffffffffffffff16611aef611a5c565b73ffffffffffffffffffffffffffffffffffffffff1614611b45576040517f08c379a0000000000000000000000000000000000000000000000000000000008152600401611b3c906145e4565b60405180910390fd5b611b4d6115f4565b611b8c576040517f08c379a0000000000000000000000000000000000000000000000000000000008152600401611b8390614464565b60405180910390fd5b600960009054906101000a900473ffffffffffffffffffffffffffffffffffffffff1673ffffffffffffffffffffffffffffffffffffffff168273ffffffffffffffffffffffffffffffffffffffff161415611c1d576040517f08c379a0000000000000000000000000000000000000000000000000000000008152600401611c14906143e4565b60405180910390fd5b60008290508073ffffffffffffffffffffffffffffffffffffffff1663a9059cbb838373ffffffffffffffffffffffffffffffffffffffff166370a08231306040518263ffffffff1660e01b8152600401611c7891906142ad565b60206040518083038186803b158015611c9057600080fd5b505afa158015611ca4573d6000803e3d6000fd5b505050506040513d601f19601f82011682018060405250810190611cc89190613821565b6040518363ffffffff1660e01b8152600401611ce59291906142ff565b602060405180830381600087803b158015611cff57600080fd5b505af1158015611d13573d6000803e3d6000fd5b505050506040513d601f19601f82011682018060405250810190611d3791906137cf565b611d76576040517f08c379a0000000000000000000000000000000000000000000000000000000008152600401611d6d90614624565b60405180910390fd5b505050565b611d8361165e565b15611dc3576040517f08c379a0000000000000000000000000000000000000000000000000000000008152600401611dba90614564565b60405180910390fd5b600960149054906101000a900460ff16611e12576040517f08c379a0000000000000000000000000000000000000000000000000000000008152600401611e0990614504565b60405180910390fd5b611e1a61160d565b611e59576040517f08c379a0000000000000000000000000000000000000000000000000000000008152600401611e5090614644565b60405180910390fd5b600360009054906101000a900460ff1615611e8157611e773361159e565b611e8057600080fd5b5b60008111611ec4576040517f08c379a0000000000000000000000000000000000000000000000000000000008152600401611ebb906146c4565b60405180910390fd5b611ecc612961565b811115611f0e576040517f08c379a0000000000000000000000000000000000000000000000000000000008152600401611f05906144c4565b60405180910390fd5b611f1781611a8b565b3414611f58576040517f08c379a0000000000000000000000000000000000000000000000000000000008152600401611f4f90614664565b60405180910390fd5b600f54811015611f9d576040517f08c379a0000000000000000000000000000000000000000000000000000000008152600401611f9490614684565b60405180910390fd5b601054811115611fe2576040517f08c379a0000000000000000000000000000000000000000000000000000000008152600401611fd990614544565b60405180910390fd5b6000611fed33612a3e565b90506000805b82518110156121355760006005600085848151811061203b577f4e487b7100000000000000000000000000000000000000000000000000000000600052603260045260246000fd5b602002602001015181526020019081526020016000206040518060c0016040529081600082015481526020016001820160009054906101000a900473ffffffffffffffffffffffffffffffffffffffff1673ffffffffffffffffffffffffffffffffffffffff1673ffffffffffffffffffffffffffffffffffffffff16815260200160028201548152602001600382015481526020016004820160009054906101000a900460ff161515151581526020016004820160019054906101000a900460ff161515151581525050905061211f8160000151846135ae90919063ffffffff16565b925050808061212d90614bc4565b915050611ff3565b5060105461214c84836135ae90919063ffffffff16565b111561218d576040517f08c379a000000000000000000000000000000000000000000000000000000000815260040161218490614604565b60405180910390fd5b601460009054906101000a905050600060045490506121b860016004546135ae90919063ffffffff16565b60048190555060006040518060c001604052808681526020013373ffffffffffffffffffffffffffffffffffffffff168152602001348152602001428152602001601460009054906101000a900460ff161515815260200160001515815250905080600560008481526020019081526020016000206000820151816000015560208201518160010160006101000a81548173ffffffffffffffffffffffffffffffffffffffff021916908373ffffffffffffffffffffffffffffffffffffffff160217905550604082015181600201556060820151816003015560808201518160040160006101000a81548160ff02191690831515021790555060a08201518160040160016101000a81548160ff0219169083151502179055509050506007829080600181540180825580915050600190039060005260206000200160009091909190915055600860003373ffffffffffffffffffffffffffffffffffffffff1673ffffffffffffffffffffffffffffffffffffffff1681526020019081526020016000208290806001815401808255809150506001900390600052602060002001600090919091909150556006339080600181540180825580915050600190039060005260206000200160009091909190916101000a81548173ffffffffffffffffffffffffffffffffffffffff021916908373ffffffffffffffffffffffffffffffffffffffff1602179055506123dc856012546135ae90919063ffffffff16565b6012819055503373ffffffffffffffffffffffffffffffffffffffff167fbec109f7ee137de661c6887caa96653c0545050a9908a3b6eb5190440bbec864864260405161242a929190614780565b60405180910390a25050505050565b60016020528060005260406000206000915054906101000a900460ff1681565b60155481565b601460009054906101000a900460ff16156124af576040517f08c379a00000000000000000000000000000000000000000000000000000000081526004016124a6906144a4565b60405180910390fd5b6124b76115f4565b6124f6576040517f08c379a00000000000000000000000000000000000000000000000000000000081526004016124ed90614464565b60405180910390fd5b6124fe61165e565b1561253e576040517f08c379a000000000000000000000000000000000000000000000000000000000815260040161253590614564565b60405180910390fd5b600060056000838152602001908152602001600020600001541415801561258657506005600082815260200190815260200160002060040160009054906101000a900460ff16155b6125c5576040517f08c379a00000000000000000000000000000000000000000000000000000000081526004016125bc90614404565b60405180910390fd5b6125ce81613473565b61260d576040517f08c379a0000000000000000000000000000000000000000000000000000000008152600401612604906144e4565b60405180910390fd5b60016005600083815260200190815260200160002060040160006101000a81548160ff021916908315150217905550600960009054906101000a900473ffffffffffffffffffffffffffffffffffffffff1673ffffffffffffffffffffffffffffffffffffffff1663a9059cbb3360056000858152602001908152602001600020600001546040518363ffffffff1660e01b81526004016126af9291906142ff565b602060405180830381600087803b1580156126c957600080fd5b505af11580156126dd573d6000803e3d6000fd5b505050506040513d601f19601f8201168201806040525081019061270191906137cf565b612740576040517f08c379a000000000000000000000000000000000000000000000000000000000815260040161273790614444565b60405180910390fd5b50565b61274b61357a565b73ffffffffffffffffffffffffffffffffffffffff16612769611a5c565b73ffffffffffffffffffffffffffffffffffffffff16146127bf576040517f08c379a00000000000000000000000000000000000000000000000000000000081526004016127b6906145e4565b60405180910390fd5b600281815481106127f9577f4e487b7100000000000000000000000000000000000000000000000000000000600052603260045260246000fd5b9060005260206000200160009054906101000a900473ffffffffffffffffffffffffffffffffffffffff1673ffffffffffffffffffffffffffffffffffffffff168273ffffffffffffffffffffffffffffffffffffffff161461285b57600080fd5b6000600160008473ffffffffffffffffffffffffffffffffffffffff1673ffffffffffffffffffffffffffffffffffffffff16815260200190815260200160002060006101000a81548160ff021916908315150217905550600281815481106128ed577f4e487b7100000000000000000000000000000000000000000000000000000000600052603260045260246000fd5b9060005260206000200160006101000a81549073ffffffffffffffffffffffffffffffffffffffff02191690558173ffffffffffffffffffffffffffffffffffffffff167fcdd2e9b91a56913d370075169cefa1602ba36be5301664f752192bb1709df75760405160405180910390a25050565b60006012546013546129739190614af1565b905090565b6000612982610d07565b156129df57612992601154611a8b565b61299d601254611a8b565b10156129de576040517f08c379a00000000000000000000000000000000000000000000000000000000081526004016129d590614584565b60405180910390fd5b5b6001905090565b600b60009054906101000a900460ff1681565b60028181548110612a0957600080fd5b906000526020600020016000915054906101000a900473ffffffffffffffffffffffffffffffffffffffff1681565b600e5481565b6060600860008373ffffffffffffffffffffffffffffffffffffffff1673ffffffffffffffffffffffffffffffffffffffff168152602001908152602001600020805480602002602001604051908101604052809291908181526020018280548015612ac957602002820191906000526020600020905b815481526020019060010190808311612ab5575b50505050509050919050565b612add61357a565b73ffffffffffffffffffffffffffffffffffffffff16612afb611a5c565b73ffffffffffffffffffffffffffffffffffffffff1614612b51576040517f08c379a0000000000000000000000000000000000000000000000000000000008152600401612b48906145e4565b60405180910390fd5b60005b8151811015612d48576001151560016000848481518110612b9e577f4e487b7100000000000000000000000000000000000000000000000000000000600052603260045260246000fd5b602002602001015173ffffffffffffffffffffffffffffffffffffffff1673ffffffffffffffffffffffffffffffffffffffff16815260200190815260200160002060009054906101000a900460ff1615151415612bfb57600080fd5b6001806000848481518110612c39577f4e487b7100000000000000000000000000000000000000000000000000000000600052603260045260246000fd5b602002602001015173ffffffffffffffffffffffffffffffffffffffff1673ffffffffffffffffffffffffffffffffffffffff16815260200190815260200160002060006101000a81548160ff0219169083151502179055506002828281518110612ccd577f4e487b7100000000000000000000000000000000000000000000000000000000600052603260045260246000fd5b60200260200101519080600181540180825580915050600190039060005260206000200160009091909190916101000a81548173ffffffffffffffffffffffffffffffffffffffff021916908373ffffffffffffffffffffffffffffffffffffffff1602179055508080612d4090614bc4565b915050612b54565b5080604051612d579190614296565b60405180910390207fe3c5086a518f78e8aa61952bb9c28a9a0f0022707e537ea961faa918e0d89f6f60405160405180910390a250565b612d9661357a565b73ffffffffffffffffffffffffffffffffffffffff16612db4611a5c565b73ffffffffffffffffffffffffffffffffffffffff1614612e0a576040517f08c379a0000000000000000000000000000000000000000000000000000000008152600401612e01906145e4565b60405180910390fd5b612e126115f4565b612e51576040517f08c379a0000000000000000000000000000000000000000000000000000000008152600401612e4890614464565b60405180910390fd5b600b60009054906101000a900460ff1615612e6b57600080fd5b6000612e75610d07565b8015612e945750612e87601154611a8b565b612e92601254611a8b565b105b15612ea3576013549050612ebd565b612eba6012546013546135c490919063ffffffff16565b90505b6000811115612fd0576001600b60006101000a81548160ff021916908315150217905550600960009054906101000a900473ffffffffffffffffffffffffffffffffffffffff1673ffffffffffffffffffffffffffffffffffffffff1663a9059cbb33836040518363ffffffff1660e01b8152600401612f3e9291906142ff565b602060405180830381600087803b158015612f5857600080fd5b505af1158015612f6c573d6000803e3d6000fd5b505050506040513d601f19601f82011682018060405250810190612f9091906137cf565b612fcf576040517f08c379a0000000000000000000000000000000000000000000000000000000008152600401612fc690614444565b60405180910390fd5b5b50565b612fdb611483565b61301a576040517f08c379a0000000000000000000000000000000000000000000000000000000008152600401613011906146a4565b60405180910390fd5b6013546130378261302961167a565b6135ae90919063ffffffff16565b1115613078576040517f08c379a000000000000000000000000000000000000000000000000000000000815260040161306f90614424565b60405180910390fd5b600960009054906101000a900473ffffffffffffffffffffffffffffffffffffffff1673ffffffffffffffffffffffffffffffffffffffff166323b872dd3330846040518463ffffffff1660e01b81526004016130d7939291906142c8565b602060405180830381600087803b1580156130f157600080fd5b505af1158015613105573d6000803e3d6000fd5b505050506040513d601f19601f8201168201806040525081019061312991906137cf565b613168576040517f08c379a000000000000000000000000000000000000000000000000000000000815260040161315f906145c4565b60405180910390fd5b60135461317361167a565b1415613195576001600960146101000a81548160ff0219169083151502179055505b50565b600781815481106131a857600080fd5b906000526020600020016000915090505481565b60105481565b601460019054906101000a900473ffffffffffffffffffffffffffffffffffffffff1681565b60006131f5601354611a8b565b905090565b6006818154811061320a57600080fd5b906000526020600020016000915054906101000a900473ffffffffffffffffffffffffffffffffffffffff1681565b61324161357a565b73ffffffffffffffffffffffffffffffffffffffff1661325f611a5c565b73ffffffffffffffffffffffffffffffffffffffff16146132b5576040517f08c379a00000000000000000000000000000000000000000000000000000000081526004016132ac906145e4565b60405180910390fd5b600073ffffffffffffffffffffffffffffffffffffffff168173ffffffffffffffffffffffffffffffffffffffff161415613325576040517f08c379a000000000000000000000000000000000000000000000000000000000815260040161331c90614484565b60405180910390fd5b8073ffffffffffffffffffffffffffffffffffffffff16600060019054906101000a900473ffffffffffffffffffffffffffffffffffffffff1673ffffffffffffffffffffffffffffffffffffffff167f8be0079c531659141344cd1fd0a4f28419497f9722a3daafe3b4186f6b6457e060405160405180910390a380600060016101000a81548173ffffffffffffffffffffffffffffffffffffffff021916908373ffffffffffffffffffffffffffffffffffffffff16021790555050565b6060600680548060200260200160405190810160405280929190818152602001828054801561346957602002820191906000526020600020905b8160009054906101000a900473ffffffffffffffffffffffffffffffffffffffff1673ffffffffffffffffffffffffffffffffffffffff168152602001906001019080831161341f575b5050505050905090565b60006005600083815260200190815260200160002060010160009054906101000a900473ffffffffffffffffffffffffffffffffffffffff1673ffffffffffffffffffffffffffffffffffffffff163373ffffffffffffffffffffffffffffffffffffffff16149050919050565b613577816040516024016134f591906143a2565b6040516020818303038152906040527f41304fac000000000000000000000000000000000000000000000000000000007bffffffffffffffffffffffffffffffffffffffffffffffffffffffff19166020820180517bffffffffffffffffffffffffffffffffffffffffffffffffffffffff83818316178352505050506135da565b50565b600033905090565b600081836135909190614a97565b905092915050565b600081836135a691906148f5565b905092915050565b600081836135bc919061489f565b905092915050565b600081836135d29190614af1565b905092915050565b60008151905060006a636f6e736f6c652e6c6f679050602083016000808483855afa5050505050565b6000613616613611846147da565b6147a9565b9050808382526020820190508285602086028201111561363557600080fd5b60005b85811015613665578161364b888261366f565b845260208401935060208301925050600181019050613638565b5050509392505050565b60008135905061367e81614cb8565b92915050565b600082601f83011261369557600080fd5b81356136a5848260208601613603565b91505092915050565b6000815190506136bd81614ccf565b92915050565b6000813590506136d281614ce6565b92915050565b6000815190506136e781614ce6565b92915050565b6000602082840312156136ff57600080fd5b600061370d8482850161366f565b91505092915050565b6000806040838503121561372957600080fd5b60006137378582860161366f565b92505060206137488582860161366f565b9150509250929050565b6000806040838503121561376557600080fd5b60006137738582860161366f565b9250506020613784858286016136c3565b9150509250929050565b6000602082840312156137a057600080fd5b600082013567ffffffffffffffff8111156137ba57600080fd5b6137c684828501613684565b91505092915050565b6000602082840312156137e157600080fd5b60006137ef848285016136ae565b91505092915050565b60006020828403121561380a57600080fd5b6000613818848285016136c3565b91505092915050565b60006020828403121561383357600080fd5b6000613841848285016136d8565b91505092915050565b60006138568383613892565b60208301905092915050565b600061386e83836138b0565b60208301905092915050565b60006138868383614278565b60208301905092915050565b61389b81614b25565b82525050565b6138aa81614b25565b82525050565b6138b981614b25565b82525050565b60006138ca82614826565b6138d48185614861565b93506138df83614806565b8060005b838110156139105781516138f7888261384a565b975061390283614847565b9250506001810190506138e3565b5085935050505092915050565b600061392882614826565b6139328185614872565b935061393d83614806565b8060005b8381101561396e5781516139558882613862565b975061396083614847565b925050600181019050613941565b5085935050505092915050565b600061398682614831565b613990818561487d565b935061399b83614816565b8060005b838110156139cc5781516139b3888261387a565b97506139be83614854565b92505060018101905061399f565b5085935050505092915050565b6139e281614b37565b82525050565b6139f181614b6d565b82525050565b6000613a028261483c565b613a0c818561488e565b9350613a1c818560208601614b91565b613a2581614c9a565b840191505092915050565b6000613a3d60148361488e565b91507f5061757361626c653a206e6f74207061757365640000000000000000000000006000830152602082019050919050565b6000613a7d603b8361488e565b91507f546f6b656e20416464726573732068617320746f20626520646966662074686160008301527f6e20746865206572633230207375626a65637420746f2073616c6500000000006020830152604082019050919050565b6000613ae360218361488e565b91507f5075726368617365206973206569746865722030206f722066696e616c697a6560008301527f64000000000000000000000000000000000000000000000000000000000000006020830152604082019050919050565b6000613b4960388361488e565b91507f5472616e73666572656420746f6b656e73206861766520746f2062652065717560008301527f616c206f72206c657373207468616e2070726f706f73656400000000000000006020830152604082019050919050565b6000613baf60158361488e565b91507f4552433230207472616e73666572206661696c656400000000000000000000006000830152602082019050919050565b6000613bef60138361488e565b91507f48617320746f2062652066696e616c697a6564000000000000000000000000006000830152602082019050919050565b6000613c2f60268361488e565b91507f4f776e61626c653a206e6577206f776e657220697320746865207a65726f206160008301527f64647265737300000000000000000000000000000000000000000000000000006020830152604082019050919050565b6000613c9560198361488e565b91507f48617320746f206265206e6f6e2041746f6d69632073776170000000000000006000830152602082019050919050565b6000613cd560248361488e565b91507f416d6f756e74206973206c657373207468616e20746f6b656e7320617661696c60008301527f61626c65000000000000000000000000000000000000000000000000000000006020830152604082019050919050565b6000613d3b60148361488e565b91507f41646472657373206973206e6f742062757965720000000000000000000000006000830152602082019050919050565b6000613d7b60108361488e565b91507f48617320746f2062652066756e646564000000000000000000000000000000006000830152602082019050919050565b6000613dbb602e8361488e565b91507f546f74616c526169736520697320626967676572207468616e206d696e696d7560008301527f6d20726169736520616d6f756e740000000000000000000000000000000000006020830152604082019050919050565b6000613e2160258361488e565b91507f416d6f756e7420697320736d616c6c6572207468616e206d6178696d756d206160008301527f6d6f756e740000000000000000000000000000000000000000000000000000006020830152604082019050919050565b6000613e8760108361488e565b91507f5061757361626c653a20706175736564000000000000000000000000000000006000830152602082019050919050565b6000613ec7602c8361488e565b91507f546f74616c5261697365206973206c657373207468616e206d696e696d756d2060008301527f726169736520616d6f756e7400000000000000000000000000000000000000006020830152604082019050919050565b6000613f2d601a8361488e565b91507f4d696e696d756d2072616973652068617320746f2065786973740000000000006000830152602082019050919050565b6000613f6d601b8361488e565b91507f4661696c656420455243323020746f6b656e207472616e7366657200000000006000830152602082019050919050565b6000613fad60208361488e565b91507f4f776e61626c653a2063616c6c6572206973206e6f7420746865206f776e65726000830152602082019050919050565b6000613fed60318361488e565b91507f416464726573732068617320616c72656164792070617373656420746865206d60008301527f617820616d6f756e74206f6620737761700000000000000000000000000000006020830152604082019050919050565b6000614053601b8361488e565b91507f455243323020546f6b656e207472616e73666572206661696c656400000000006000830152602082019050919050565b6000614093600e8361488e565b91507f48617320746f206265206f70656e0000000000000000000000000000000000006000830152602082019050919050565b60006140d360518361488e565b91507f557365722068617320746f20636f7665722074686520636f7374206f6620746860008301527f65207377617020696e204554482c207573652074686520636f73742066756e6360208301527f74696f6e20746f2064657465726d696e650000000000000000000000000000006040830152606082019050919050565b600061415f60248361488e565b91507f416d6f756e7420697320626967676572207468616e206d696e696d756d20616d60008301527f6f756e74000000000000000000000000000000000000000000000000000000006020830152604082019050919050565b60006141c560158361488e565b91507f48617320746f206265207072652d7374617274656400000000000000000000006000830152602082019050919050565b600061420560198361488e565b91507f416d6f756e742068617320746f20626520706f736974697665000000000000006000830152602082019050919050565b6000614245601f8361488e565b91507f4d696e696d756d2072616973652068617320746f2062652072656163686564006000830152602082019050919050565b61428181614b63565b82525050565b61429081614b63565b82525050565b60006142a2828461391d565b915081905092915050565b60006020820190506142c260008301846138a1565b92915050565b60006060820190506142dd60008301866138a1565b6142ea60208301856138a1565b6142f76040830184614287565b949350505050565b600060408201905061431460008301856138a1565b6143216020830184614287565b9392505050565b6000602082019050818103600083015261434281846138bf565b905092915050565b60006020820190508181036000830152614364818461397b565b905092915050565b600060208201905061438160008301846139d9565b92915050565b600060208201905061439c60008301846139e8565b92915050565b600060208201905081810360008301526143bc81846139f7565b905092915050565b600060208201905081810360008301526143dd81613a30565b9050919050565b600060208201905081810360008301526143fd81613a70565b9050919050565b6000602082019050818103600083015261441d81613ad6565b9050919050565b6000602082019050818103600083015261443d81613b3c565b9050919050565b6000602082019050818103600083015261445d81613ba2565b9050919050565b6000602082019050818103600083015261447d81613be2565b9050919050565b6000602082019050818103600083015261449d81613c22565b9050919050565b600060208201905081810360008301526144bd81613c88565b9050919050565b600060208201905081810360008301526144dd81613cc8565b9050919050565b600060208201905081810360008301526144fd81613d2e565b9050919050565b6000602082019050818103600083015261451d81613d6e565b9050919050565b6000602082019050818103600083015261453d81613dae565b9050919050565b6000602082019050818103600083015261455d81613e14565b9050919050565b6000602082019050818103600083015261457d81613e7a565b9050919050565b6000602082019050818103600083015261459d81613eba565b9050919050565b600060208201905081810360008301526145bd81613f20565b9050919050565b600060208201905081810360008301526145dd81613f60565b9050919050565b600060208201905081810360008301526145fd81613fa0565b9050919050565b6000602082019050818103600083015261461d81613fe0565b9050919050565b6000602082019050818103600083015261463d81614046565b9050919050565b6000602082019050818103600083015261465d81614086565b9050919050565b6000602082019050818103600083015261467d816140c6565b9050919050565b6000602082019050818103600083015261469d81614152565b9050919050565b600060208201905081810360008301526146bd816141b8565b9050919050565b600060208201905081810360008301526146dd816141f8565b9050919050565b600060208201905081810360008301526146fd81614238565b9050919050565b60006020820190506147196000830184614287565b92915050565b600060c0820190506147346000830189614287565b61474160208301886138a1565b61474e6040830187614287565b61475b6060830186614287565b61476860808301856139d9565b61477560a08301846139d9565b979650505050505050565b60006040820190506147956000830185614287565b6147a26020830184614287565b9392505050565b6000604051905081810181811067ffffffffffffffff821117156147d0576147cf614c6b565b5b8060405250919050565b600067ffffffffffffffff8211156147f5576147f4614c6b565b5b602082029050602081019050919050565b6000819050602082019050919050565b6000819050602082019050919050565b600081519050919050565b600081519050919050565b600081519050919050565b6000602082019050919050565b6000602082019050919050565b600082825260208201905092915050565b600081905092915050565b600082825260208201905092915050565b600082825260208201905092915050565b60006148aa82614b63565b91506148b583614b63565b9250827fffffffffffffffffffffffffffffffffffffffffffffffffffffffffffffffff038211156148ea576148e9614c0d565b5b828201905092915050565b600061490082614b63565b915061490b83614b63565b92508261491b5761491a614c3c565b5b828204905092915050565b6000808291508390505b60018511156149705780860481111561494c5761494b614c0d565b5b600185161561495b5780820291505b808102905061496985614cab565b9450614930565b94509492505050565b600061498482614b63565b915061498f83614b63565b92506149bc7fffffffffffffffffffffffffffffffffffffffffffffffffffffffffffffffff84846149c4565b905092915050565b6000826149d45760019050614a90565b816149e25760009050614a90565b81600181146149f85760028114614a0257614a31565b6001915050614a90565b60ff841115614a1457614a13614c0d565b5b8360020a915084821115614a2b57614a2a614c0d565b5b50614a90565b5060208310610133831016604e8410600b8410161715614a665782820a905083811115614a6157614a60614c0d565b5b614a90565b614a738484846001614926565b92509050818404811115614a8a57614a89614c0d565b5b81810290505b9392505050565b6000614aa282614b63565b9150614aad83614b63565b9250817fffffffffffffffffffffffffffffffffffffffffffffffffffffffffffffffff0483118215151615614ae657614ae5614c0d565b5b828202905092915050565b6000614afc82614b63565b9150614b0783614b63565b925082821015614b1a57614b19614c0d565b5b828203905092915050565b6000614b3082614b43565b9050919050565b60008115159050919050565b600073ffffffffffffffffffffffffffffffffffffffff82169050919050565b6000819050919050565b6000614b7882614b7f565b9050919050565b6000614b8a82614b43565b9050919050565b60005b83811015614baf578082015181840152602081019050614b94565b83811115614bbe576000848401525b50505050565b6000614bcf82614b63565b91507fffffffffffffffffffffffffffffffffffffffffffffffffffffffffffffffff821415614c0257614c01614c0d565b5b600182019050919050565b7f4e487b7100000000000000000000000000000000000000000000000000000000600052601160045260246000fd5b7f4e487b7100000000000000000000000000000000000000000000000000000000600052601260045260246000fd5b7f4e487b7100000000000000000000000000000000000000000000000000000000600052604160045260246000fd5b6000601f19601f8301169050919050565b60008160011c9050919050565b614cc181614b25565b8114614ccc57600080fd5b50565b614cd881614b37565b8114614ce357600080fd5b50565b614cef81614b63565b8114614cfa57600080fd5b5056fea2646970667358221220c794f17012269da386ec7e0afa6442c3770187eede7bc30a16fb520c87c1dc9464736f6c63430008000033",
  "linkReferences": {},
  "deployedLinkReferences": {}
}