{
  "_format": "hh-sol-artifact-1",
  "contractName": "Whitelist",
  "sourceName": "contracts/FixedSwap.sol",
  "abi": [
    {
      "inputs": [
        {
          "internalType": "bool",
          "name": "_hasWhitelisting",
          "type": "bool"
        }
      ],
      "stateMutability": "nonpayable",
      "type": "constructor"
    },
    {
      "anonymous": false,
      "inputs": [
        {
          "indexed": true,
          "internalType": "address[]",
          "name": "accounts",
          "type": "address[]"
        }
      ],
      "name": "AddedToWhitelist",
      "type": "event"
    },
    {
      "anonymous": false,
      "inputs": [
        {
          "indexed": true,
          "internalType": "address",
          "name": "previousOwner",
          "type": "address"
        },
        {
          "indexed": true,
          "internalType": "address",
          "name": "newOwner",
          "type": "address"
        }
      ],
      "name": "OwnershipTransferred",
      "type": "event"
    },
    {
      "anonymous": false,
      "inputs": [
        {
          "indexed": true,
          "internalType": "address",
          "name": "account",
          "type": "address"
        }
      ],
      "name": "RemovedFromWhitelist",
      "type": "event"
    },
    {
      "inputs": [
        {
          "internalType": "address[]",
          "name": "_addresses",
          "type": "address[]"
        }
      ],
      "name": "add",
      "outputs": [],
      "stateMutability": "nonpayable",
      "type": "function"
    },
    {
      "inputs": [],
      "name": "getWhitelistedAddresses",
      "outputs": [
        {
          "internalType": "address[]",
          "name": "",
          "type": "address[]"
        }
      ],
      "stateMutability": "view",
      "type": "function"
    },
    {
      "inputs": [],
      "name": "hasWhitelisting",
      "outputs": [
        {
          "internalType": "bool",
          "name": "",
          "type": "bool"
        }
      ],
      "stateMutability": "view",
      "type": "function"
    },
    {
      "inputs": [
        {
          "internalType": "address",
          "name": "_address",
          "type": "address"
        }
      ],
      "name": "isWhitelisted",
      "outputs": [
        {
          "internalType": "bool",
          "name": "",
          "type": "bool"
        }
      ],
      "stateMutability": "view",
      "type": "function"
    },
    {
      "inputs": [],
      "name": "owner",
      "outputs": [
        {
          "internalType": "address",
          "name": "",
          "type": "address"
        }
      ],
      "stateMutability": "view",
      "type": "function"
    },
    {
      "inputs": [
        {
          "internalType": "address",
          "name": "_address",
          "type": "address"
        },
        {
          "internalType": "uint256",
          "name": "_index",
          "type": "uint256"
        }
      ],
      "name": "remove",
      "outputs": [],
      "stateMutability": "nonpayable",
      "type": "function"
    },
    {
      "inputs": [],
      "name": "renounceOwnership",
      "outputs": [],
      "stateMutability": "nonpayable",
      "type": "function"
    },
    {
      "inputs": [
        {
          "internalType": "address",
          "name": "newOwner",
          "type": "address"
        }
      ],
      "name": "transferOwnership",
      "outputs": [],
      "stateMutability": "nonpayable",
      "type": "function"
    },
    {
      "inputs": [
        {
          "internalType": "address",
          "name": "",
          "type": "address"
        }
      ],
      "name": "whitelist",
      "outputs": [
        {
          "internalType": "bool",
          "name": "",
          "type": "bool"
        }
      ],
      "stateMutability": "view",
      "type": "function"
    },
    {
      "inputs": [
        {
          "internalType": "uint256",
          "name": "",
          "type": "uint256"
        }
      ],
      "name": "whitelistedAddresses",
      "outputs": [
        {
          "internalType": "address",
          "name": "",
          "type": "address"
        }
      ],
      "stateMutability": "view",
      "type": "function"
    }
  ],
  "bytecode": "0x60806040526000600360006101000a81548160ff0219169083151502179055503480156200002c57600080fd5b50604051620012e1380380620012e1833981810160405281019062000052919062000142565b6000620000646200012360201b60201c565b9050806000806101000a81548173ffffffffffffffffffffffffffffffffffffffff021916908373ffffffffffffffffffffffffffffffffffffffff1602179055508073ffffffffffffffffffffffffffffffffffffffff16600073ffffffffffffffffffffffffffffffffffffffff167f8be0079c531659141344cd1fd0a4f28419497f9722a3daafe3b4186f6b6457e060405160405180910390a35080600360006101000a81548160ff0219169083151502179055505062000194565b600033905090565b6000815190506200013c816200017a565b92915050565b6000602082840312156200015557600080fd5b600062000165848285016200012b565b91505092915050565b60008115159050919050565b62000185816200016e565b81146200019157600080fd5b50565b61113d80620001a46000396000f3fe608060405234801561001057600080fd5b506004361061009e5760003560e01c80639b19251a116100665780639b19251a14610137578063abe7f1ab14610167578063ba4e5c4914610183578063c4c1c94f146101b3578063f2fde38b146101cf5761009e565b806307662345146100a35780633af32abf146100c15780636d028027146100f1578063715018a61461010f5780638da5cb5b14610119575b600080fd5b6100ab6101eb565b6040516100b89190610edd565b60405180910390f35b6100db60048036038101906100d69190610bec565b6101fe565b6040516100e89190610edd565b60405180910390f35b6100f9610254565b6040516101069190610ebb565b60405180910390f35b6101176102e2565b005b61012161041c565b60405161012e9190610ea0565b60405180910390f35b610151600480360381019061014c9190610bec565b610445565b60405161015e9190610edd565b60405180910390f35b610181600480360381019061017c9190610c15565b610465565b005b61019d60048036038101906101989190610c92565b610683565b6040516101aa9190610ea0565b60405180910390f35b6101cd60048036038101906101c89190610c51565b6106c2565b005b6101e960048036038101906101e49190610bec565b61097b565b005b600360009054906101000a900460ff1681565b6000600160008373ffffffffffffffffffffffffffffffffffffffff1673ffffffffffffffffffffffffffffffffffffffff16815260200190815260200160002060009054906101000a900460ff169050919050565b606060028054806020026020016040519081016040528092919081815260200182805480156102d857602002820191906000526020600020905b8160009054906101000a900473ffffffffffffffffffffffffffffffffffffffff1673ffffffffffffffffffffffffffffffffffffffff168152602001906001019080831161028e575b5050505050905090565b6102ea610b24565b73ffffffffffffffffffffffffffffffffffffffff1661030861041c565b73ffffffffffffffffffffffffffffffffffffffff161461035e576040517f08c379a000000000000000000000000000000000000000000000000000000000815260040161035590610f18565b60405180910390fd5b600073ffffffffffffffffffffffffffffffffffffffff1660008054906101000a900473ffffffffffffffffffffffffffffffffffffffff1673ffffffffffffffffffffffffffffffffffffffff167f8be0079c531659141344cd1fd0a4f28419497f9722a3daafe3b4186f6b6457e060405160405180910390a360008060006101000a81548173ffffffffffffffffffffffffffffffffffffffff021916908373ffffffffffffffffffffffffffffffffffffffff160217905550565b60008060009054906101000a900473ffffffffffffffffffffffffffffffffffffffff16905090565b60016020528060005260406000206000915054906101000a900460ff1681565b61046d610b24565b73ffffffffffffffffffffffffffffffffffffffff1661048b61041c565b73ffffffffffffffffffffffffffffffffffffffff16146104e1576040517f08c379a00000000000000000000000000000000000000000000000000000000081526004016104d890610f18565b60405180910390fd5b6002818154811061051b577f4e487b7100000000000000000000000000000000000000000000000000000000600052603260045260246000fd5b9060005260206000200160009054906101000a900473ffffffffffffffffffffffffffffffffffffffff1673ffffffffffffffffffffffffffffffffffffffff168273ffffffffffffffffffffffffffffffffffffffff161461057d57600080fd5b6000600160008473ffffffffffffffffffffffffffffffffffffffff1673ffffffffffffffffffffffffffffffffffffffff16815260200190815260200160002060006101000a81548160ff0219169083151502179055506002818154811061060f577f4e487b7100000000000000000000000000000000000000000000000000000000600052603260045260246000fd5b9060005260206000200160006101000a81549073ffffffffffffffffffffffffffffffffffffffff02191690558173ffffffffffffffffffffffffffffffffffffffff167fcdd2e9b91a56913d370075169cefa1602ba36be5301664f752192bb1709df75760405160405180910390a25050565b6002818154811061069357600080fd5b906000526020600020016000915054906101000a900473ffffffffffffffffffffffffffffffffffffffff1681565b6106ca610b24565b73ffffffffffffffffffffffffffffffffffffffff166106e861041c565b73ffffffffffffffffffffffffffffffffffffffff161461073e576040517f08c379a000000000000000000000000000000000000000000000000000000000815260040161073590610f18565b60405180910390fd5b60005b815181101561093557600115156001600084848151811061078b577f4e487b7100000000000000000000000000000000000000000000000000000000600052603260045260246000fd5b602002602001015173ffffffffffffffffffffffffffffffffffffffff1673ffffffffffffffffffffffffffffffffffffffff16815260200190815260200160002060009054906101000a900460ff16151514156107e857600080fd5b6001806000848481518110610826577f4e487b7100000000000000000000000000000000000000000000000000000000600052603260045260246000fd5b602002602001015173ffffffffffffffffffffffffffffffffffffffff1673ffffffffffffffffffffffffffffffffffffffff16815260200190815260200160002060006101000a81548160ff02191690831515021790555060028282815181106108ba577f4e487b7100000000000000000000000000000000000000000000000000000000600052603260045260246000fd5b60200260200101519080600181540180825580915050600190039060005260206000200160009091909190916101000a81548173ffffffffffffffffffffffffffffffffffffffff021916908373ffffffffffffffffffffffffffffffffffffffff160217905550808061092d90611032565b915050610741565b50806040516109449190610e89565b60405180910390207fe3c5086a518f78e8aa61952bb9c28a9a0f0022707e537ea961faa918e0d89f6f60405160405180910390a250565b610983610b24565b73ffffffffffffffffffffffffffffffffffffffff166109a161041c565b73ffffffffffffffffffffffffffffffffffffffff16146109f7576040517f08c379a00000000000000000000000000000000000000000000000000000000081526004016109ee90610f18565b60405180910390fd5b600073ffffffffffffffffffffffffffffffffffffffff168173ffffffffffffffffffffffffffffffffffffffff161415610a67576040517f08c379a0000000000000000000000000000000000000000000000000000000008152600401610a5e90610ef8565b60405180910390fd5b8073ffffffffffffffffffffffffffffffffffffffff1660008054906101000a900473ffffffffffffffffffffffffffffffffffffffff1673ffffffffffffffffffffffffffffffffffffffff167f8be0079c531659141344cd1fd0a4f28419497f9722a3daafe3b4186f6b6457e060405160405180910390a3806000806101000a81548173ffffffffffffffffffffffffffffffffffffffff021916908373ffffffffffffffffffffffffffffffffffffffff16021790555050565b600033905090565b6000610b3f610b3a84610f69565b610f38565b90508083825260208201905082856020860282011115610b5e57600080fd5b60005b85811015610b8e5781610b748882610b98565b845260208401935060208301925050600181019050610b61565b5050509392505050565b600081359050610ba7816110d9565b92915050565b600082601f830112610bbe57600080fd5b8135610bce848260208601610b2c565b91505092915050565b600081359050610be6816110f0565b92915050565b600060208284031215610bfe57600080fd5b6000610c0c84828501610b98565b91505092915050565b60008060408385031215610c2857600080fd5b6000610c3685828601610b98565b9250506020610c4785828601610bd7565b9150509250929050565b600060208284031215610c6357600080fd5b600082013567ffffffffffffffff811115610c7d57600080fd5b610c8984828501610bad565b91505092915050565b600060208284031215610ca457600080fd5b6000610cb284828501610bd7565b91505092915050565b6000610cc78383610ceb565b60208301905092915050565b6000610cdf8383610d09565b60208301905092915050565b610cf481610fea565b82525050565b610d0381610fea565b82525050565b610d1281610fea565b82525050565b6000610d2382610fa5565b610d2d8185610fbd565b9350610d3883610f95565b8060005b83811015610d69578151610d508882610cbb565b9750610d5b83610fb0565b925050600181019050610d3c565b5085935050505092915050565b6000610d8182610fa5565b610d8b8185610fce565b9350610d9683610f95565b8060005b83811015610dc7578151610dae8882610cd3565b9750610db983610fb0565b925050600181019050610d9a565b5085935050505092915050565b610ddd81610ffc565b82525050565b6000610df0602683610fd9565b91507f4f776e61626c653a206e6577206f776e657220697320746865207a65726f206160008301527f64647265737300000000000000000000000000000000000000000000000000006020830152604082019050919050565b6000610e56602083610fd9565b91507f4f776e61626c653a2063616c6c6572206973206e6f7420746865206f776e65726000830152602082019050919050565b6000610e958284610d76565b915081905092915050565b6000602082019050610eb56000830184610cfa565b92915050565b60006020820190508181036000830152610ed58184610d18565b905092915050565b6000602082019050610ef26000830184610dd4565b92915050565b60006020820190508181036000830152610f1181610de3565b9050919050565b60006020820190508181036000830152610f3181610e49565b9050919050565b6000604051905081810181811067ffffffffffffffff82111715610f5f57610f5e6110aa565b5b8060405250919050565b600067ffffffffffffffff821115610f8457610f836110aa565b5b602082029050602081019050919050565b6000819050602082019050919050565b600081519050919050565b6000602082019050919050565b600082825260208201905092915050565b600081905092915050565b600082825260208201905092915050565b6000610ff582611008565b9050919050565b60008115159050919050565b600073ffffffffffffffffffffffffffffffffffffffff82169050919050565b6000819050919050565b600061103d82611028565b91507fffffffffffffffffffffffffffffffffffffffffffffffffffffffffffffffff8214156110705761106f61107b565b5b600182019050919050565b7f4e487b7100000000000000000000000000000000000000000000000000000000600052601160045260246000fd5b7f4e487b7100000000000000000000000000000000000000000000000000000000600052604160045260246000fd5b6110e281610fea565b81146110ed57600080fd5b50565b6110f981611028565b811461110457600080fd5b5056fea26469706673582212202e9687abfe484c76a73788b7d21bf950eb22825e71ea49921df2100ec8a15d4764736f6c63430008000033",
  "linkReferences": {},
  "deployedLinkReferences": {}
}